{
  "_format": "hh-sol-artifact-1",
  "contractName": "EventTicketLogic",
  "sourceName": "contracts/EventTicketLogic.sol",
  "abi": [
    {
      "inputs": [],
      "name": "ApprovalCallerNotOwnerNorApproved",
      "type": "error"
    },
    {
      "inputs": [],
      "name": "ApprovalQueryForNonexistentToken",
      "type": "error"
    },
    {
      "inputs": [],
      "name": "BalanceQueryForZeroAddress",
      "type": "error"
    },
    {
      "inputs": [],
      "name": "EventAlreadyCancelled",
      "type": "error"
    },
    {
      "inputs": [],
      "name": "EventEnded",
      "type": "error"
    },
    {
      "inputs": [],
      "name": "EventIsCancelled",
      "type": "error"
    },
    {
      "inputs": [],
      "name": "InsufficientValue",
      "type": "error"
    },
    {
      "inputs": [],
      "name": "InvalidInitialization",
      "type": "error"
    },
    {
      "inputs": [],
      "name": "LengthMismatch",
      "type": "error"
    },
    {
      "inputs": [],
      "name": "LimitPerWallet",
      "type": "error"
    },
    {
      "inputs": [],
      "name": "MaxSupplyReached",
      "type": "error"
    },
    {
      "inputs": [],
      "name": "MintERC2309QuantityExceedsLimit",
      "type": "error"
    },
    {
      "inputs": [],
      "name": "MintToZeroAddress",
      "type": "error"
    },
    {
      "inputs": [],
      "name": "MintZeroQuantity",
      "type": "error"
    },
    {
      "inputs": [],
      "name": "NotAdmin",
      "type": "error"
    },
    {
      "inputs": [],
      "name": "NotCompatibleWithSpotMints",
      "type": "error"
    },
    {
      "inputs": [],
      "name": "NotInitializing",
      "type": "error"
    },
    {
      "inputs": [],
      "name": "NotOrganizerOrAdmin",
      "type": "error"
    },
    {
      "inputs": [],
      "name": "NotOwnerOfTicket",
      "type": "error"
    },
    {
      "inputs": [],
      "name": "NotStarted",
      "type": "error"
    },
    {
      "inputs": [],
      "name": "NotValidator",
      "type": "error"
    },
    {
      "inputs": [
        {
          "internalType": "address",
          "name": "owner",
          "type": "address"
        }
      ],
      "name": "OwnableInvalidOwner",
      "type": "error"
    },
    {
      "inputs": [
        {
          "internalType": "address",
          "name": "account",
          "type": "address"
        }
      ],
      "name": "OwnableUnauthorizedAccount",
      "type": "error"
    },
    {
      "inputs": [],
      "name": "OwnerQueryForNonexistentToken",
      "type": "error"
    },
    {
      "inputs": [],
      "name": "OwnershipNotInitializedForExtraData",
      "type": "error"
    },
    {
      "inputs": [],
      "name": "SequentialMintExceedsLimit",
      "type": "error"
    },
    {
      "inputs": [],
      "name": "SequentialUpToTooSmall",
      "type": "error"
    },
    {
      "inputs": [],
      "name": "SpotMintTokenIdTooSmall",
      "type": "error"
    },
    {
      "inputs": [],
      "name": "TicketNotActive",
      "type": "error"
    },
    {
      "inputs": [],
      "name": "TicketNotForSale",
      "type": "error"
    },
    {
      "inputs": [],
      "name": "TokenAlreadyExists",
      "type": "error"
    },
    {
      "inputs": [],
      "name": "TransferCallerNotOwnerNorApproved",
      "type": "error"
    },
    {
      "inputs": [],
      "name": "TransferFailed",
      "type": "error"
    },
    {
      "inputs": [],
      "name": "TransferFromIncorrectOwner",
      "type": "error"
    },
    {
      "inputs": [],
      "name": "TransferToNonERC721ReceiverImplementer",
      "type": "error"
    },
    {
      "inputs": [],
      "name": "TransferToZeroAddress",
      "type": "error"
    },
    {
      "inputs": [],
      "name": "URIQueryForNonexistentToken",
      "type": "error"
    },
    {
      "anonymous": false,
      "inputs": [
        {
          "indexed": true,
          "internalType": "address",
          "name": "owner",
          "type": "address"
        },
        {
          "indexed": true,
          "internalType": "address",
          "name": "approved",
          "type": "address"
        },
        {
          "indexed": true,
          "internalType": "uint256",
          "name": "tokenId",
          "type": "uint256"
        }
      ],
      "name": "Approval",
      "type": "event"
    },
    {
      "anonymous": false,
      "inputs": [
        {
          "indexed": true,
          "internalType": "address",
          "name": "owner",
          "type": "address"
        },
        {
          "indexed": true,
          "internalType": "address",
          "name": "operator",
          "type": "address"
        },
        {
          "indexed": false,
          "internalType": "bool",
          "name": "approved",
          "type": "bool"
        }
      ],
      "name": "ApprovalForAll",
      "type": "event"
    },
    {
      "anonymous": false,
      "inputs": [
        {
          "indexed": true,
          "internalType": "uint256",
          "name": "fromTokenId",
          "type": "uint256"
        },
        {
          "indexed": false,
          "internalType": "uint256",
          "name": "toTokenId",
          "type": "uint256"
        },
        {
          "indexed": true,
          "internalType": "address",
          "name": "from",
          "type": "address"
        },
        {
          "indexed": true,
          "internalType": "address",
          "name": "to",
          "type": "address"
        }
      ],
      "name": "ConsecutiveTransfer",
      "type": "event"
    },
    {
      "anonymous": false,
      "inputs": [
        {
          "indexed": true,
          "internalType": "address",
          "name": "executor",
          "type": "address"
        },
        {
          "indexed": false,
          "internalType": "uint256",
          "name": "timestamp",
          "type": "uint256"
        }
      ],
      "name": "EventCancelled",
      "type": "event"
    },
    {
      "anonymous": false,
      "inputs": [
        {
          "indexed": false,
          "internalType": "uint256",
          "name": "ticketPrice",
          "type": "uint256"
        },
        {
          "indexed": false,
          "internalType": "uint256",
          "name": "maxTicketsPerAddress",
          "type": "uint256"
        },
        {
          "indexed": false,
          "internalType": "uint256",
          "name": "startPurchaseTime",
          "type": "uint256"
        },
        {
          "indexed": false,
          "internalType": "uint256",
          "name": "eventEndTime",
          "type": "uint256"
        },
        {
          "indexed": false,
          "internalType": "string",
          "name": "eventURI",
          "type": "string"
        },
        {
          "indexed": false,
          "internalType": "string",
          "name": "baseTokenURI",
          "type": "string"
        }
      ],
      "name": "EventInfoUpdated",
      "type": "event"
    },
    {
      "anonymous": false,
      "inputs": [
        {
          "indexed": false,
          "internalType": "uint64",
          "name": "version",
          "type": "uint64"
        }
      ],
      "name": "Initialized",
      "type": "event"
    },
    {
      "anonymous": false,
      "inputs": [
        {
          "indexed": true,
          "internalType": "address",
          "name": "previousOwner",
          "type": "address"
        },
        {
          "indexed": true,
          "internalType": "address",
          "name": "newOwner",
          "type": "address"
        }
      ],
      "name": "OwnershipTransferred",
      "type": "event"
    },
    {
      "anonymous": false,
      "inputs": [
        {
          "indexed": true,
          "internalType": "address",
          "name": "user",
          "type": "address"
        },
        {
          "indexed": false,
          "internalType": "string",
          "name": "role",
          "type": "string"
        },
        {
          "indexed": false,
          "internalType": "bool",
          "name": "status",
          "type": "bool"
        }
      ],
      "name": "RoleUpdated",
      "type": "event"
    },
    {
      "anonymous": false,
      "inputs": [
        {
          "indexed": true,
          "internalType": "uint256",
          "name": "tokenID",
          "type": "uint256"
        },
        {
          "indexed": false,
          "internalType": "uint256",
          "name": "price",
          "type": "uint256"
        },
        {
          "indexed": false,
          "internalType": "address",
          "name": "seller",
          "type": "address"
        }
      ],
      "name": "TicketListed",
      "type": "event"
    },
    {
      "anonymous": false,
      "inputs": [
        {
          "indexed": true,
          "internalType": "uint256",
          "name": "tokenID",
          "type": "uint256"
        },
        {
          "indexed": false,
          "internalType": "address",
          "name": "validator",
          "type": "address"
        }
      ],
      "name": "TicketRedeemed",
      "type": "event"
    },
    {
      "anonymous": false,
      "inputs": [
        {
          "indexed": true,
          "internalType": "uint256",
          "name": "tokenID",
          "type": "uint256"
        },
        {
          "indexed": false,
          "internalType": "address",
          "name": "buyer",
          "type": "address"
        },
        {
          "indexed": false,
          "internalType": "uint256",
          "name": "price",
          "type": "uint256"
        }
      ],
      "name": "TicketSold",
      "type": "event"
    },
    {
      "anonymous": false,
      "inputs": [
        {
          "indexed": true,
          "internalType": "uint256",
          "name": "tokenID",
          "type": "uint256"
        }
      ],
      "name": "TicketUnlisted",
      "type": "event"
    },
    {
      "anonymous": false,
      "inputs": [
        {
          "indexed": true,
          "internalType": "address",
          "name": "user",
          "type": "address"
        },
        {
          "indexed": false,
          "internalType": "uint256",
          "name": "quantity",
          "type": "uint256"
        }
      ],
      "name": "TicketsMinted",
      "type": "event"
    },
    {
      "anonymous": false,
      "inputs": [
        {
          "indexed": true,
          "internalType": "address",
          "name": "from",
          "type": "address"
        },
        {
          "indexed": true,
          "internalType": "address",
          "name": "to",
          "type": "address"
        },
        {
          "indexed": true,
          "internalType": "uint256",
          "name": "tokenId",
          "type": "uint256"
        }
      ],
      "name": "Transfer",
      "type": "event"
    },
    {
      "inputs": [
        {
          "internalType": "address",
          "name": "_admin",
          "type": "address"
        }
      ],
      "name": "addAdmin",
      "outputs": [],
      "stateMutability": "nonpayable",
      "type": "function"
    },
    {
      "inputs": [
        {
          "internalType": "address",
          "name": "_organizer",
          "type": "address"
        }
      ],
      "name": "addOrganizer",
      "outputs": [],
      "stateMutability": "nonpayable",
      "type": "function"
    },
    {
      "inputs": [
        {
          "internalType": "uint256[]",
          "name": "tokenIDs",
          "type": "uint256[]"
        },
        {
          "internalType": "uint256[]",
          "name": "prices",
          "type": "uint256[]"
        }
      ],
      "name": "addTicketsForSale",
      "outputs": [],
      "stateMutability": "nonpayable",
      "type": "function"
    },
    {
      "inputs": [
        {
          "internalType": "address",
          "name": "_validator",
          "type": "address"
        }
      ],
      "name": "addValidator",
      "outputs": [],
      "stateMutability": "nonpayable",
      "type": "function"
    },
    {
      "inputs": [
        {
          "internalType": "address",
          "name": "",
          "type": "address"
        }
      ],
      "name": "admins",
      "outputs": [
        {
          "internalType": "bool",
          "name": "",
          "type": "bool"
        }
      ],
      "stateMutability": "view",
      "type": "function"
    },
    {
      "inputs": [
        {
          "internalType": "address",
          "name": "to",
          "type": "address"
        },
        {
          "internalType": "uint256",
          "name": "tokenId",
          "type": "uint256"
        }
      ],
      "name": "approve",
      "outputs": [],
      "stateMutability": "payable",
      "type": "function"
    },
    {
      "inputs": [
        {
          "internalType": "address",
          "name": "owner",
          "type": "address"
        }
      ],
      "name": "balanceOf",
      "outputs": [
        {
          "internalType": "uint256",
          "name": "",
          "type": "uint256"
        }
      ],
      "stateMutability": "view",
      "type": "function"
    },
    {
      "inputs": [],
      "name": "baseTokenURI",
      "outputs": [
        {
          "internalType": "string",
          "name": "",
          "type": "string"
        }
      ],
      "stateMutability": "view",
      "type": "function"
    },
    {
      "inputs": [
        {
          "internalType": "uint256",
          "name": "tokenID",
          "type": "uint256"
        }
      ],
      "name": "buyTicket",
      "outputs": [],
      "stateMutability": "payable",
      "type": "function"
    },
    {
      "inputs": [],
      "name": "cancelEvent",
      "outputs": [],
      "stateMutability": "nonpayable",
      "type": "function"
    },
    {
      "inputs": [],
      "name": "eventEndTime",
      "outputs": [
        {
          "internalType": "uint256",
          "name": "",
          "type": "uint256"
        }
      ],
      "stateMutability": "view",
      "type": "function"
    },
    {
      "inputs": [],
      "name": "eventURI",
      "outputs": [
        {
          "internalType": "string",
          "name": "",
          "type": "string"
        }
      ],
      "stateMutability": "view",
      "type": "function"
    },
    {
      "inputs": [
        {
          "internalType": "uint256",
          "name": "tokenId",
          "type": "uint256"
        }
      ],
      "name": "getApproved",
      "outputs": [
        {
          "internalType": "address",
          "name": "",
          "type": "address"
        }
      ],
      "stateMutability": "view",
      "type": "function"
    },
    {
      "inputs": [
        {
          "components": [
            {
              "internalType": "string",
              "name": "name",
              "type": "string"
            },
            {
              "internalType": "string",
              "name": "symbol",
              "type": "string"
            },
            {
              "internalType": "uint256",
              "name": "ticketPrice",
              "type": "uint256"
            },
            {
              "internalType": "uint256",
              "name": "maxSupply",
              "type": "uint256"
            },
            {
              "internalType": "string",
              "name": "eventURI",
              "type": "string"
            },
            {
              "internalType": "string",
              "name": "baseTokenURI",
              "type": "string"
            },
            {
              "internalType": "uint256",
              "name": "maxTicketsPerAddress",
              "type": "uint256"
            },
            {
              "internalType": "uint256",
              "name": "startPurchaseTime",
              "type": "uint256"
            },
            {
              "internalType": "uint256",
              "name": "eventEndTime",
              "type": "uint256"
            }
          ],
          "internalType": "struct EventTicketLogic.EventConfig",
          "name": "config",
          "type": "tuple"
        },
        {
          "internalType": "address",
          "name": "_owner",
          "type": "address"
        }
      ],
      "name": "initialize",
      "outputs": [],
      "stateMutability": "nonpayable",
      "type": "function"
    },
    {
      "inputs": [
        {
          "internalType": "address",
          "name": "owner",
          "type": "address"
        },
        {
          "internalType": "address",
          "name": "operator",
          "type": "address"
        }
      ],
      "name": "isApprovedForAll",
      "outputs": [
        {
          "internalType": "bool",
          "name": "",
          "type": "bool"
        }
      ],
      "stateMutability": "view",
      "type": "function"
    },
    {
      "inputs": [],
      "name": "isCancelled",
      "outputs": [
        {
          "internalType": "bool",
          "name": "",
          "type": "bool"
        }
      ],
      "stateMutability": "view",
      "type": "function"
    },
    {
      "inputs": [
        {
          "internalType": "uint256",
          "name": "tokenID",
          "type": "uint256"
        },
        {
          "internalType": "uint256",
          "name": "price",
          "type": "uint256"
        }
      ],
      "name": "listTicket",
      "outputs": [],
      "stateMutability": "nonpayable",
      "type": "function"
    },
    {
      "inputs": [],
      "name": "maxSupply",
      "outputs": [
        {
          "internalType": "uint256",
          "name": "",
          "type": "uint256"
        }
      ],
      "stateMutability": "view",
      "type": "function"
    },
    {
      "inputs": [],
      "name": "maxTicketsPerAddress",
      "outputs": [
        {
          "internalType": "uint256",
          "name": "",
          "type": "uint256"
        }
      ],
      "stateMutability": "view",
      "type": "function"
    },
    {
      "inputs": [
        {
          "internalType": "uint256",
          "name": "quantity",
          "type": "uint256"
        }
      ],
      "name": "mintTickets",
      "outputs": [],
      "stateMutability": "payable",
      "type": "function"
    },
    {
      "inputs": [],
      "name": "name",
      "outputs": [
        {
          "internalType": "string",
          "name": "",
          "type": "string"
        }
      ],
      "stateMutability": "view",
      "type": "function"
    },
    {
      "inputs": [
        {
          "internalType": "address",
          "name": "",
          "type": "address"
        }
      ],
      "name": "organizers",
      "outputs": [
        {
          "internalType": "bool",
          "name": "",
          "type": "bool"
        }
      ],
      "stateMutability": "view",
      "type": "function"
    },
    {
      "inputs": [],
      "name": "owner",
      "outputs": [
        {
          "internalType": "address",
          "name": "",
          "type": "address"
        }
      ],
      "stateMutability": "view",
      "type": "function"
    },
    {
      "inputs": [
        {
          "internalType": "uint256",
          "name": "tokenId",
          "type": "uint256"
        }
      ],
      "name": "ownerOf",
      "outputs": [
        {
          "internalType": "address",
          "name": "",
          "type": "address"
        }
      ],
      "stateMutability": "view",
      "type": "function"
    },
    {
      "inputs": [],
      "name": "pendingDuration",
      "outputs": [
        {
          "internalType": "uint256",
          "name": "",
          "type": "uint256"
        }
      ],
      "stateMutability": "view",
      "type": "function"
    },
    {
      "inputs": [
        {
          "internalType": "address",
          "name": "_admin",
          "type": "address"
        }
      ],
      "name": "removeAdmin",
      "outputs": [],
      "stateMutability": "nonpayable",
      "type": "function"
    },
    {
      "inputs": [
        {
          "internalType": "address",
          "name": "_organizer",
          "type": "address"
        }
      ],
      "name": "removeOrganizer",
      "outputs": [],
      "stateMutability": "nonpayable",
      "type": "function"
    },
    {
      "inputs": [
        {
          "internalType": "address",
          "name": "_validator",
          "type": "address"
        }
      ],
      "name": "removeValidator",
      "outputs": [],
      "stateMutability": "nonpayable",
      "type": "function"
    },
    {
      "inputs": [],
      "name": "renounceOwnership",
      "outputs": [],
      "stateMutability": "nonpayable",
      "type": "function"
    },
    {
      "inputs": [
        {
          "internalType": "address",
          "name": "from",
          "type": "address"
        },
        {
          "internalType": "address",
          "name": "to",
          "type": "address"
        },
        {
          "internalType": "uint256",
          "name": "tokenId",
          "type": "uint256"
        }
      ],
      "name": "safeTransferFrom",
      "outputs": [],
      "stateMutability": "payable",
      "type": "function"
    },
    {
      "inputs": [
        {
          "internalType": "address",
          "name": "from",
          "type": "address"
        },
        {
          "internalType": "address",
          "name": "to",
          "type": "address"
        },
        {
          "internalType": "uint256",
          "name": "tokenId",
          "type": "uint256"
        },
        {
          "internalType": "bytes",
          "name": "_data",
          "type": "bytes"
        }
      ],
      "name": "safeTransferFrom",
      "outputs": [],
      "stateMutability": "payable",
      "type": "function"
    },
    {
      "inputs": [
        {
          "internalType": "address",
          "name": "operator",
          "type": "address"
        },
        {
          "internalType": "bool",
          "name": "approved",
          "type": "bool"
        }
      ],
      "name": "setApprovalForAll",
      "outputs": [],
      "stateMutability": "nonpayable",
      "type": "function"
    },
    {
      "inputs": [],
      "name": "startPurchaseTime",
      "outputs": [
        {
          "internalType": "uint256",
          "name": "",
          "type": "uint256"
        }
      ],
      "stateMutability": "view",
      "type": "function"
    },
    {
      "inputs": [
        {
          "internalType": "bytes4",
          "name": "interfaceId",
          "type": "bytes4"
        }
      ],
      "name": "supportsInterface",
      "outputs": [
        {
          "internalType": "bool",
          "name": "",
          "type": "bool"
        }
      ],
      "stateMutability": "view",
      "type": "function"
    },
    {
      "inputs": [],
      "name": "symbol",
      "outputs": [
        {
          "internalType": "string",
          "name": "",
          "type": "string"
        }
      ],
      "stateMutability": "view",
      "type": "function"
    },
    {
      "inputs": [],
      "name": "ticketPrice",
      "outputs": [
        {
          "internalType": "uint256",
          "name": "",
          "type": "uint256"
        }
      ],
      "stateMutability": "view",
      "type": "function"
    },
    {
      "inputs": [
        {
          "internalType": "uint256",
          "name": "",
          "type": "uint256"
        }
      ],
      "name": "tickets",
      "outputs": [
        {
          "internalType": "enum EventTicketLogic.TicketStatus",
          "name": "status",
          "type": "uint8"
        },
        {
          "internalType": "uint256",
          "name": "pendingSince",
          "type": "uint256"
        },
        {
          "internalType": "uint256",
          "name": "salePrice",
          "type": "uint256"
        },
        {
          "internalType": "address",
          "name": "seller",
          "type": "address"
        },
        {
          "internalType": "bytes32",
          "name": "commitHash",
          "type": "bytes32"
        }
      ],
      "stateMutability": "view",
      "type": "function"
    },
    {
      "inputs": [
        {
          "internalType": "address",
          "name": "user",
          "type": "address"
        }
      ],
      "name": "ticketsForSaleOfUsr",
      "outputs": [
        {
          "internalType": "uint256[]",
          "name": "",
          "type": "uint256[]"
        }
      ],
      "stateMutability": "view",
      "type": "function"
    },
    {
      "inputs": [
        {
          "internalType": "address",
          "name": "",
          "type": "address"
        }
      ],
      "name": "ticketsPurchased",
      "outputs": [
        {
          "internalType": "uint256",
          "name": "",
          "type": "uint256"
        }
      ],
      "stateMutability": "view",
      "type": "function"
    },
    {
      "inputs": [
        {
          "internalType": "uint256",
          "name": "tokenId",
          "type": "uint256"
        }
      ],
      "name": "tokenURI",
      "outputs": [
        {
          "internalType": "string",
          "name": "",
          "type": "string"
        }
      ],
      "stateMutability": "view",
      "type": "function"
    },
    {
      "inputs": [
        {
          "internalType": "address",
          "name": "ownerAddr",
          "type": "address"
        }
      ],
      "name": "tokensOfOwner",
      "outputs": [
        {
          "internalType": "uint256[]",
          "name": "",
          "type": "uint256[]"
        }
      ],
      "stateMutability": "view",
      "type": "function"
    },
    {
      "inputs": [],
      "name": "totalSupply",
      "outputs": [
        {
          "internalType": "uint256",
          "name": "result",
          "type": "uint256"
        }
      ],
      "stateMutability": "view",
      "type": "function"
    },
    {
      "inputs": [
        {
          "internalType": "address",
          "name": "from",
          "type": "address"
        },
        {
          "internalType": "address",
          "name": "to",
          "type": "address"
        },
        {
          "internalType": "uint256",
          "name": "tokenId",
          "type": "uint256"
        }
      ],
      "name": "transferFrom",
      "outputs": [],
      "stateMutability": "payable",
      "type": "function"
    },
    {
      "inputs": [
        {
          "internalType": "address",
          "name": "newOwner",
          "type": "address"
        }
      ],
      "name": "transferOwnership",
      "outputs": [],
      "stateMutability": "nonpayable",
      "type": "function"
    },
    {
      "inputs": [
        {
          "internalType": "uint256",
          "name": "tokenID",
          "type": "uint256"
        }
      ],
      "name": "unlistTicket",
      "outputs": [],
      "stateMutability": "nonpayable",
      "type": "function"
    },
    {
      "inputs": [
        {
          "internalType": "uint256",
          "name": "_ticketPrice",
          "type": "uint256"
        },
        {
          "internalType": "uint256",
          "name": "_maxTicketsPerAddress",
          "type": "uint256"
        },
        {
          "internalType": "uint256",
          "name": "_startPurchaseTime",
          "type": "uint256"
        },
        {
          "internalType": "uint256",
          "name": "_eventEndTime",
          "type": "uint256"
        },
        {
          "internalType": "string",
          "name": "_eventURI",
          "type": "string"
        },
        {
          "internalType": "string",
          "name": "_baseTokenURI",
          "type": "string"
        }
      ],
      "name": "updateEventInfo",
      "outputs": [],
      "stateMutability": "nonpayable",
      "type": "function"
    },
    {
      "inputs": [
        {
          "internalType": "address",
          "name": "",
          "type": "address"
        }
      ],
      "name": "validators",
      "outputs": [
        {
          "internalType": "bool",
          "name": "",
          "type": "bool"
        }
      ],
      "stateMutability": "view",
      "type": "function"
    },
    {
      "inputs": [
        {
          "internalType": "uint256",
          "name": "tokenID",
          "type": "uint256"
        }
      ],
      "name": "verifyTicket",
      "outputs": [],
      "stateMutability": "nonpayable",
      "type": "function"
    },
    {
      "inputs": [],
      "name": "withdraw",
      "outputs": [],
      "stateMutability": "nonpayable",
      "type": "function"
    }
  ],
  "bytecode": "0x6080604052348015600f57600080fd5b50615a538061001f6000396000f3fe6080604052600436106102ae5760003560e01c80636352211e11610175578063a22cb465116100dc578063d6bd5db111610095578063edcf24ad1161006f578063edcf24ad14610a70578063f2fde38b14610aad578063fa52c7d814610ad6578063fb6c953714610b13576102ae565b8063d6bd5db1146109df578063e4725f0214610a0a578063e985e9c514610a33576102ae565b8063a22cb465146108dc578063b5e8069514610905578063b88d4fde14610930578063c87b56dd1461094c578063d547cfb714610989578063d5abeb01146109b4576102ae565b806383ece4c61161012e57806383ece4c6146107ca5780638462151c146107f35780638da5cb5b146108305780638edc4cc61461085b57806395d89b411461088657806395ee1221146108b1576102ae565b80636352211e146106b757806367dd74ca146106f45780636ccda0a614610710578063704802751461074d57806370a0823114610776578063715018a6146107b3576102ae565b806340a141ff1161021957806348adbd50116101d257806348adbd50146105a75780634cb9d773146105d05780634d238c8e146105f957806350b4471214610622578063543cb81f1461066357806356b6861c1461068c576102ae565b806340a141ff146104b557806342842e0e146104de578063429b62e5146104fa57806344ade56d146105375780634610c74514610560578063463a94a51461057c576102ae565b80631209b1f61161026b5780631209b1f6146103da5780631785f53c1461040557806318160ddd1461042e57806323b872dd14610459578063305a905a146104755780633ccfd60b1461049e576102ae565b806301ffc9a7146102b35780630333a392146102f05780630544c5b91461031957806306fdde0314610356578063081812fc14610381578063095ea7b3146103be575b600080fd5b3480156102bf57600080fd5b506102da60048036038101906102d591906143d1565b610b2a565b6040516102e79190614419565b60405180910390f35b3480156102fc57600080fd5b5061031760048036038101906103129190614768565b610bbc565b005b34801561032557600080fd5b50610340600480360381019061033b91906147c4565b611007565b60405161034d9190614419565b60405180910390f35b34801561036257600080fd5b5061036b611027565b6040516103789190614870565b60405180910390f35b34801561038d57600080fd5b506103a860048036038101906103a39190614892565b6110c2565b6040516103b591906148ce565b60405180910390f35b6103d860048036038101906103d391906148e9565b611129565b005b3480156103e657600080fd5b506103ef611139565b6040516103fc9190614938565b60405180910390f35b34801561041157600080fd5b5061042c600480360381019061042791906147c4565b61113f565b005b34801561043a57600080fd5b506104436111f1565b6040516104509190614938565b60405180910390f35b610473600480360381019061046e9190614953565b611259565b005b34801561048157600080fd5b5061049c600480360381019061049791906149a6565b611550565b005b3480156104aa57600080fd5b506104b3611731565b005b3480156104c157600080fd5b506104dc60048036038101906104d791906147c4565b6117e6565b005b6104f860048036038101906104f39190614953565b611954565b005b34801561050657600080fd5b50610521600480360381019061051c91906147c4565b611974565b60405161052e9190614419565b60405180910390f35b34801561054357600080fd5b5061055e600480360381019061055991906147c4565b611994565b005b61057a60048036038101906105759190614892565b611b02565b005b34801561058857600080fd5b50610591611d8c565b60405161059e9190614938565b60405180910390f35b3480156105b357600080fd5b506105ce60048036038101906105c99190614a46565b611d92565b005b3480156105dc57600080fd5b506105f760048036038101906105f29190614b6b565b611f82565b005b34801561060557600080fd5b50610620600480360381019061061b91906147c4565b6120cf565b005b34801561062e57600080fd5b5061064960048036038101906106449190614892565b61223d565b60405161065a959493929190614c7c565b60405180910390f35b34801561066f57600080fd5b5061068a60048036038101906106859190614892565b6122a0565b005b34801561069857600080fd5b506106a16124d0565b6040516106ae9190614938565b60405180910390f35b3480156106c357600080fd5b506106de60048036038101906106d99190614892565b6124d6565b6040516106eb91906148ce565b60405180910390f35b61070e60048036038101906107099190614892565b6124e8565b005b34801561071c57600080fd5b50610737600480360381019061073291906147c4565b6127e6565b6040516107449190614938565b60405180910390f35b34801561075957600080fd5b50610774600480360381019061076f91906147c4565b6127fe565b005b34801561078257600080fd5b5061079d600480360381019061079891906147c4565b6128b0565b6040516107aa9190614938565b60405180910390f35b3480156107bf57600080fd5b506107c8612950565b005b3480156107d657600080fd5b506107f160048036038101906107ec9190614892565b612964565b005b3480156107ff57600080fd5b5061081a600480360381019061081591906147c4565b612aa2565b6040516108279190614d8d565b60405180910390f35b34801561083c57600080fd5b50610845612ba2565b60405161085291906148ce565b60405180910390f35b34801561086757600080fd5b50610870612bda565b60405161087d9190614938565b60405180910390f35b34801561089257600080fd5b5061089b612be0565b6040516108a89190614870565b60405180910390f35b3480156108bd57600080fd5b506108c6612c7b565b6040516108d39190614419565b60405180910390f35b3480156108e857600080fd5b5061090360048036038101906108fe9190614ddb565b612c8e565b005b34801561091157600080fd5b5061091a612da2565b6040516109279190614870565b60405180910390f35b61094a60048036038101906109459190614ebc565b612e30565b005b34801561095857600080fd5b50610973600480360381019061096e9190614892565b612e82565b6040516109809190614870565b60405180910390f35b34801561099557600080fd5b5061099e612eff565b6040516109ab9190614870565b60405180910390f35b3480156109c057600080fd5b506109c9612f8d565b6040516109d69190614938565b60405180910390f35b3480156109eb57600080fd5b506109f4612f93565b604051610a019190614938565b60405180910390f35b348015610a1657600080fd5b50610a316004803603810190610a2c91906147c4565b612f99565b005b348015610a3f57600080fd5b50610a5a6004803603810190610a559190614f3f565b613107565b604051610a679190614419565b60405180910390f35b348015610a7c57600080fd5b50610a976004803603810190610a9291906147c4565b6131a4565b604051610aa49190614d8d565b60405180910390f35b348015610ab957600080fd5b50610ad46004803603810190610acf91906147c4565b613381565b005b348015610ae257600080fd5b50610afd6004803603810190610af891906147c4565b613407565b604051610b0a9190614419565b60405180910390f35b348015610b1f57600080fd5b50610b28613427565b005b60006301ffc9a760e01b827bffffffffffffffffffffffffffffffffffffffffffffffffffffffff19161480610b8557506380ac58cd60e01b827bffffffffffffffffffffffffffffffffffffffffffffffffffffffff1916145b80610bb55750635b5e139f60e01b827bffffffffffffffffffffffffffffffffffffffffffffffffffffffff1916145b9050919050565b610bc46135fa565b60000160019054906101000a900460ff16610bf857610be16135fa565b60000160009054906101000a900460ff1615610c01565b610c00613627565b5b610c40576040517f08c379a0000000000000000000000000000000000000000000000000000000008152600401610c3790614ff1565b60405180910390fd5b6000610c4a6135fa565b60000160019054906101000a900460ff161590508015610cad576001610c6e6135fa565b60000160016101000a81548160ff0219169083151502179055506001610c926135fa565b60000160006101000a81548160ff0219169083151502179055505b6000610cb761363e565b905060008160000160089054906101000a900460ff1615905060008260000160009054906101000a900467ffffffffffffffff1690506000808267ffffffffffffffff16148015610d055750825b9050600060018367ffffffffffffffff16148015610d3a575060003073ffffffffffffffffffffffffffffffffffffffff163b145b905081158015610d48575080155b15610d7f576040517ff92ee8a900000000000000000000000000000000000000000000000000000000815260040160405180910390fd5b60018560000160006101000a81548167ffffffffffffffff021916908367ffffffffffffffff1602179055508315610dcf5760018560000160086101000a81548160ff0219169083151502179055505b610de188600001518960200151613666565b610dea876136cc565b876040015160008190555087606001516001819055508760a0015160029081610e13919061521d565b508760c001516003819055508760e00151600581905550876101000151600681905550876080015160049081610e49919061521d565b506102586007819055506001600b60008973ffffffffffffffffffffffffffffffffffffffff1673ffffffffffffffffffffffffffffffffffffffff16815260200190815260200160002060006101000a81548160ff0219169083151502179055506001600a60008973ffffffffffffffffffffffffffffffffffffffff1673ffffffffffffffffffffffffffffffffffffffff16815260200190815260200160002060006101000a81548160ff0219169083151502179055506001600c60008973ffffffffffffffffffffffffffffffffffffffff1673ffffffffffffffffffffffffffffffffffffffff16815260200190815260200160002060006101000a81548160ff0219169083151502179055506000600860006101000a81548160ff0219169083151502179055508315610fd25760008560000160086101000a81548160ff0219169083151502179055507fc7f505b2f371ae2175ee4913f4499e1f2633a7b5936321eed1cdaeb6115181d26001604051610fc9919061533e565b60405180910390a15b50505050508015611002576000610fe76135fa565b60000160016101000a81548160ff0219169083151502179055505b505050565b600c6020528060005260406000206000915054906101000a900460ff1681565b60606110316136e0565b600201805461103f90615040565b80601f016020809104026020016040519081016040528092919081815260200182805461106b90615040565b80156110b85780601f1061108d576101008083540402835291602001916110b8565b820191906000526020600020905b81548152906001019060200180831161109b57829003601f168201915b5050505050905090565b60006110cd8261370d565b6110e2576110e163cf4700e460e01b6137d4565b5b6110ea6136e0565b600601600083815260200190815260200160002060000160009054906101000a900473ffffffffffffffffffffffffffffffffffffffff169050919050565b611135828260016137de565b5050565b60005481565b611147613916565b6000600b60008373ffffffffffffffffffffffffffffffffffffffff1673ffffffffffffffffffffffffffffffffffffffff16815260200190815260200160002060006101000a81548160ff0219169083151502179055508073ffffffffffffffffffffffffffffffffffffffff167fc4d12f4fed3c7d8e40b10b954dc4b19c26000388e17fd31b4af750dd33b4166460006040516111e691906153a5565b60405180910390a250565b60006111fb61399d565b6112036136e0565b6001015461120f6136e0565b60000154030390507fffffffffffffffffffffffffffffffffffffffffffffffffffffffffffffffff6112406139a2565b146112565761124d6136e0565b60080154810190505b90565b6000611264826139ca565b905073ffffffffffffffffffffffffffffffffffffffff8473ffffffffffffffffffffffffffffffffffffffff161693508373ffffffffffffffffffffffffffffffffffffffff168173ffffffffffffffffffffffffffffffffffffffff16146112d9576112d863a114810060e01b6137d4565b5b6000806112e584613afe565b915091506112fb81876112f6613b2e565b613b36565b611326576113108661130b613b2e565b613107565b611325576113246359c896be60e01b6137d4565b5b5b6113338686866001613b7a565b801561133e57600082555b6113466136e0565b60050160008773ffffffffffffffffffffffffffffffffffffffff1673ffffffffffffffffffffffffffffffffffffffff16815260200190815260200160002060008154600190039190508190555061139d6136e0565b60050160008673ffffffffffffffffffffffffffffffffffffffff1673ffffffffffffffffffffffffffffffffffffffff168152602001908152602001600020600081546001019190508190555061141e856113fa888887613b80565b7c020000000000000000000000000000000000000000000000000000000017613ba8565b6114266136e0565b60040160008681526020019081526020016000208190555060007c02000000000000000000000000000000000000000000000000000000008416036114c857600060018501905060006114776136e0565b600401600083815260200190815260200160002054036114c6576114996136e0565b6000015481146114c557836114ac6136e0565b6004016000838152602001908152602001600020819055505b5b505b600073ffffffffffffffffffffffffffffffffffffffff8673ffffffffffffffffffffffffffffffffffffffff161690508481887fddf252ad1be2c89b69c2b068fc378daa952ba7f163c4a11628f55a4df523b3ef600080a46000810361153a5761153963ea553b3460e01b6137d4565b5b6115478787876001613bd3565b50505050505050565b600860009054906101000a900460ff1615611597576040517fd26f5d6400000000000000000000000000000000000000000000000000000000815260040160405180910390fd5b3373ffffffffffffffffffffffffffffffffffffffff166115b7836124d6565b73ffffffffffffffffffffffffffffffffffffffff1614611604576040517f5662029200000000000000000000000000000000000000000000000000000000815260040160405180910390fd5b60018081111561161757611616614bec565b5b600d600084815260200190815260200160002060000160009054906101000a900460ff16600181111561164d5761164c614bec565b5b03611684576040517fb61bb86a00000000000000000000000000000000000000000000000000000000815260040160405180910390fd5b6000600d60008481526020019081526020016000209050338160030160006101000a81548173ffffffffffffffffffffffffffffffffffffffff021916908373ffffffffffffffffffffffffffffffffffffffff1602179055508181600201819055506116f2333085611259565b827f5ddeb20641397a4006800e63273f4f75df6e6964e4456220df00032d3d160da783336040516117249291906153d3565b60405180910390a2505050565b611739613916565b6000611743612ba2565b73ffffffffffffffffffffffffffffffffffffffff16476040516117669061542d565b60006040518083038185875af1925050503d80600081146117a3576040519150601f19603f3d011682016040523d82523d6000602084013e6117a8565b606091505b50509050806117e3576040517f90b8ec1800000000000000000000000000000000000000000000000000000000815260040160405180910390fd5b50565b600b60003373ffffffffffffffffffffffffffffffffffffffff1673ffffffffffffffffffffffffffffffffffffffff16815260200190815260200160002060009054906101000a900460ff161580156118735750611843612ba2565b73ffffffffffffffffffffffffffffffffffffffff163373ffffffffffffffffffffffffffffffffffffffff1614155b156118aa576040517f7bfa4b9f00000000000000000000000000000000000000000000000000000000815260040160405180910390fd5b6000600a60008373ffffffffffffffffffffffffffffffffffffffff1673ffffffffffffffffffffffffffffffffffffffff16815260200190815260200160002060006101000a81548160ff0219169083151502179055508073ffffffffffffffffffffffffffffffffffffffff167fc4d12f4fed3c7d8e40b10b954dc4b19c26000388e17fd31b4af750dd33b416646000604051611949919061548e565b60405180910390a250565b61196f83838360405180602001604052806000815250612e30565b505050565b600b6020528060005260406000206000915054906101000a900460ff1681565b600b60003373ffffffffffffffffffffffffffffffffffffffff1673ffffffffffffffffffffffffffffffffffffffff16815260200190815260200160002060009054906101000a900460ff16158015611a2157506119f1612ba2565b73ffffffffffffffffffffffffffffffffffffffff163373ffffffffffffffffffffffffffffffffffffffff1614155b15611a58576040517f7bfa4b9f00000000000000000000000000000000000000000000000000000000815260040160405180910390fd5b6000600c60008373ffffffffffffffffffffffffffffffffffffffff1673ffffffffffffffffffffffffffffffffffffffff16815260200190815260200160002060006101000a81548160ff0219169083151502179055508073ffffffffffffffffffffffffffffffffffffffff167fc4d12f4fed3c7d8e40b10b954dc4b19c26000388e17fd31b4af750dd33b416646000604051611af79190615508565b60405180910390a250565b600860009054906101000a900460ff1615611b49576040517fd26f5d6400000000000000000000000000000000000000000000000000000000815260040160405180910390fd5b6006544210611b84576040517f1963c37d00000000000000000000000000000000000000000000000000000000815260040160405180910390fd5b600554421015611bc0576040517f6f312cbd00000000000000000000000000000000000000000000000000000000815260040160405180910390fd5b60015481611bcc6111f1565b611bd69190615565565b1115611c0e576040517fd05cb60900000000000000000000000000000000000000000000000000000000815260040160405180910390fd5b60035481600960003373ffffffffffffffffffffffffffffffffffffffff1673ffffffffffffffffffffffffffffffffffffffff16815260200190815260200160002054611c5c9190615565565b1115611c94576040517f0dbb20fb00000000000000000000000000000000000000000000000000000000815260040160405180910390fd5b80600054611ca29190615599565b341015611cdb576040517f1101129400000000000000000000000000000000000000000000000000000000815260040160405180910390fd5b80600960003373ffffffffffffffffffffffffffffffffffffffff1673ffffffffffffffffffffffffffffffffffffffff1681526020019081526020016000206000828254611d2a9190615565565b92505081905550611d3b3382613bd9565b3373ffffffffffffffffffffffffffffffffffffffff167f64f70b72cc0e9e53852e2481e43068b546390216d3d062dbe11d9ecf7580835f82604051611d819190614938565b60405180910390a250565b60035481565b600c60003373ffffffffffffffffffffffffffffffffffffffff1673ffffffffffffffffffffffffffffffffffffffff16815260200190815260200160002060009054906101000a900460ff16158015611e365750600b60003373ffffffffffffffffffffffffffffffffffffffff1673ffffffffffffffffffffffffffffffffffffffff16815260200190815260200160002060009054906101000a900460ff16155b8015611e755750611e45612ba2565b73ffffffffffffffffffffffffffffffffffffffff163373ffffffffffffffffffffffffffffffffffffffff1614155b15611eac576040517f769a566a00000000000000000000000000000000000000000000000000000000815260040160405180910390fd5b600860009054906101000a900460ff1615611ef3576040517fd26f5d6400000000000000000000000000000000000000000000000000000000815260040160405180910390fd5b87600081905550866003819055508560058190555084600681905550838360049182611f209291906155e6565b50818160029182611f329291906155e6565b507fd198a56bd71ca0afbd3cc395d0039f797de603ffe06020d0ab7145918ca4aa128888888888888888604051611f709897969594939291906156e3565b60405180910390a15050505050505050565b600860009054906101000a900460ff1615611fc9576040517fd26f5d6400000000000000000000000000000000000000000000000000000000815260040160405180910390fd5b818190508484905014612008576040517fff633a3800000000000000000000000000000000000000000000000000000000815260040160405180910390fd5b600084849050905060005b818110156120c7573073ffffffffffffffffffffffffffffffffffffffff1663305a905a87878481811061204a57612049615756565b5b9050602002013586868581811061206457612063615756565b5b905060200201356040518363ffffffff1660e01b8152600401612088929190615785565b600060405180830381600087803b1580156120a257600080fd5b505af11580156120b6573d6000803e3d6000fd5b505050508080600101915050612013565b505050505050565b600b60003373ffffffffffffffffffffffffffffffffffffffff1673ffffffffffffffffffffffffffffffffffffffff16815260200190815260200160002060009054906101000a900460ff1615801561215c575061212c612ba2565b73ffffffffffffffffffffffffffffffffffffffff163373ffffffffffffffffffffffffffffffffffffffff1614155b15612193576040517f7bfa4b9f00000000000000000000000000000000000000000000000000000000815260040160405180910390fd5b6001600a60008373ffffffffffffffffffffffffffffffffffffffff1673ffffffffffffffffffffffffffffffffffffffff16815260200190815260200160002060006101000a81548160ff0219169083151502179055508073ffffffffffffffffffffffffffffffffffffffff167fc4d12f4fed3c7d8e40b10b954dc4b19c26000388e17fd31b4af750dd33b416646001604051612232919061548e565b60405180910390a250565b600d6020528060005260406000206000915090508060000160009054906101000a900460ff16908060010154908060020154908060030160009054906101000a900473ffffffffffffffffffffffffffffffffffffffff16908060040154905085565b600a60003373ffffffffffffffffffffffffffffffffffffffff1673ffffffffffffffffffffffffffffffffffffffff16815260200190815260200160002060009054906101000a900460ff161580156123445750600b60003373ffffffffffffffffffffffffffffffffffffffff1673ffffffffffffffffffffffffffffffffffffffff16815260200190815260200160002060009054906101000a900460ff16155b80156123835750612353612ba2565b73ffffffffffffffffffffffffffffffffffffffff163373ffffffffffffffffffffffffffffffffffffffff1614155b156123ba576040517f2ec5b44900000000000000000000000000000000000000000000000000000000815260040160405180910390fd5b6001808111156123cd576123cc614bec565b5b600d600083815260200190815260200160002060000160009054906101000a900460ff16600181111561240357612402614bec565b5b0361243a576040517fb61bb86a00000000000000000000000000000000000000000000000000000000815260040160405180910390fd5b6001600d600083815260200190815260200160002060000160006101000a81548160ff0219169083600181111561247457612473614bec565b5b02179055506000600d600083815260200190815260200160002060010181905550807f716bb19bdc2c35c51f08204334d6e0362bbe5428bbda94d186a1f2c8fa87b10c336040516124c591906148ce565b60405180910390a250565b60075481565b60006124e1826139ca565b9050919050565b600860009054906101000a900460ff161561252f576040517fd26f5d6400000000000000000000000000000000000000000000000000000000815260040160405180910390fd5b6000600d60008381526020019081526020016000209050600073ffffffffffffffffffffffffffffffffffffffff168160030160009054906101000a900473ffffffffffffffffffffffffffffffffffffffff1673ffffffffffffffffffffffffffffffffffffffff16036125d0576040517f4f9476da00000000000000000000000000000000000000000000000000000000815260040160405180910390fd5b806002015434101561260e576040517f1101129400000000000000000000000000000000000000000000000000000000815260040160405180910390fd5b60008160030160009054906101000a900473ffffffffffffffffffffffffffffffffffffffff16905060008260020154905060008360030160006101000a81548173ffffffffffffffffffffffffffffffffffffffff021916908373ffffffffffffffffffffffffffffffffffffffff1602179055506000836002018190555060008360010181905550600960003373ffffffffffffffffffffffffffffffffffffffff1673ffffffffffffffffffffffffffffffffffffffff16815260200190815260200160002060008154809291906126e8906157ae565b91905055506126f73385613bf7565b612702303386611259565b60008273ffffffffffffffffffffffffffffffffffffffff16826040516127289061542d565b60006040518083038185875af1925050503d8060008114612765576040519150601f19603f3d011682016040523d82523d6000602084013e61276a565b606091505b50509050806127a5576040517f90b8ec1800000000000000000000000000000000000000000000000000000000815260040160405180910390fd5b847fbce6612c87f6b5711225ffc4b9f920148cd399de49ba10137fe0d3c53133384133846040516127d79291906157f6565b60405180910390a25050505050565b60096020528060005260406000206000915090505481565b612806613916565b6001600b60008373ffffffffffffffffffffffffffffffffffffffff1673ffffffffffffffffffffffffffffffffffffffff16815260200190815260200160002060006101000a81548160ff0219169083151502179055508073ffffffffffffffffffffffffffffffffffffffff167fc4d12f4fed3c7d8e40b10b954dc4b19c26000388e17fd31b4af750dd33b4166460016040516128a591906153a5565b60405180910390a250565b60008073ffffffffffffffffffffffffffffffffffffffff168273ffffffffffffffffffffffffffffffffffffffff16036128f6576128f5638f4eb60460e01b6137d4565b5b67ffffffffffffffff6129076136e0565b60050160008473ffffffffffffffffffffffffffffffffffffffff1673ffffffffffffffffffffffffffffffffffffffff16815260200190815260200160002054169050919050565b612958613916565b6129626000613c07565b565b6000600d600083815260200190815260200160002090503373ffffffffffffffffffffffffffffffffffffffff168160030160009054906101000a900473ffffffffffffffffffffffffffffffffffffffff1673ffffffffffffffffffffffffffffffffffffffff1614612a04576040517f5662029200000000000000000000000000000000000000000000000000000000815260040160405180910390fd5b60008160030160006101000a81548173ffffffffffffffffffffffffffffffffffffffff021916908373ffffffffffffffffffffffffffffffffffffffff1602179055506000816002018190555060008160010181905550612a663383613bf7565b612a71303384611259565b817fdb00f3044f762e640c77fdd12df2e7cf2b4c17de34f8995969a4d98b9904af4560405160405180910390a25050565b60606000612aaf836128b0565b90506000612abb6111f1565b905060008267ffffffffffffffff811115612ad957612ad861444a565b5b604051908082528060200260200182016040528015612b075781602001602082028036833780820191505090505b5090506000805b83811015612b95578673ffffffffffffffffffffffffffffffffffffffff16612b36826124d6565b73ffffffffffffffffffffffffffffffffffffffff1603612b885780838381518110612b6557612b64615756565b5b6020026020010181815250508180612b7c906157ae565b92505084820315612b95575b8080600101915050612b0e565b5081945050505050919050565b600080612bad613cde565b90508060000160009054906101000a900473ffffffffffffffffffffffffffffffffffffffff1691505090565b60055481565b6060612bea6136e0565b6003018054612bf890615040565b80601f0160208091040260200160405190810160405280929190818152602001828054612c2490615040565b8015612c715780601f10612c4657610100808354040283529160200191612c71565b820191906000526020600020905b815481529060010190602001808311612c5457829003601f168201915b5050505050905090565b600860009054906101000a900460ff1681565b80612c976136e0565b6007016000612ca4613b2e565b73ffffffffffffffffffffffffffffffffffffffff1673ffffffffffffffffffffffffffffffffffffffff16815260200190815260200160002060008473ffffffffffffffffffffffffffffffffffffffff1673ffffffffffffffffffffffffffffffffffffffff16815260200190815260200160002060006101000a81548160ff0219169083151502179055508173ffffffffffffffffffffffffffffffffffffffff16612d51613b2e565b73ffffffffffffffffffffffffffffffffffffffff167f17307eab39ab6107e8899845ad3d59bd9653f200f220920489ca2b5937696c3183604051612d969190614419565b60405180910390a35050565b60048054612daf90615040565b80601f0160208091040260200160405190810160405280929190818152602001828054612ddb90615040565b8015612e285780601f10612dfd57610100808354040283529160200191612e28565b820191906000526020600020905b815481529060010190602001808311612e0b57829003601f168201915b505050505081565b612e3b848484611259565b60008373ffffffffffffffffffffffffffffffffffffffff163b14612e7c57612e6684848484613d06565b612e7b57612e7a63d1a57ed660e01b6137d4565b5b5b50505050565b6060612e8d8261370d565b612ea257612ea163a14c4b5060e01b6137d4565b5b6000612eac613e35565b90506000815103612ecc5760405180602001604052806000815250612ef7565b80612ed684613ec7565b604051602001612ee792919061585b565b6040516020818303038152906040525b915050919050565b60028054612f0c90615040565b80601f0160208091040260200160405190810160405280929190818152602001828054612f3890615040565b8015612f855780601f10612f5a57610100808354040283529160200191612f85565b820191906000526020600020905b815481529060010190602001808311612f6857829003601f168201915b505050505081565b60015481565b60065481565b600b60003373ffffffffffffffffffffffffffffffffffffffff1673ffffffffffffffffffffffffffffffffffffffff16815260200190815260200160002060009054906101000a900460ff161580156130265750612ff6612ba2565b73ffffffffffffffffffffffffffffffffffffffff163373ffffffffffffffffffffffffffffffffffffffff1614155b1561305d576040517f7bfa4b9f00000000000000000000000000000000000000000000000000000000815260040160405180910390fd5b6001600c60008373ffffffffffffffffffffffffffffffffffffffff1673ffffffffffffffffffffffffffffffffffffffff16815260200190815260200160002060006101000a81548160ff0219169083151502179055508073ffffffffffffffffffffffffffffffffffffffff167fc4d12f4fed3c7d8e40b10b954dc4b19c26000388e17fd31b4af750dd33b4166460016040516130fc9190615508565b60405180910390a250565b60006131116136e0565b60070160008473ffffffffffffffffffffffffffffffffffffffff1673ffffffffffffffffffffffffffffffffffffffff16815260200190815260200160002060008373ffffffffffffffffffffffffffffffffffffffff1673ffffffffffffffffffffffffffffffffffffffff16815260200190815260200160002060009054906101000a900460ff16905092915050565b606060006131b06111f1565b9050600080600090505b8281101561325e576000600d600083815260200190815260200160002090508573ffffffffffffffffffffffffffffffffffffffff168160030160009054906101000a900473ffffffffffffffffffffffffffffffffffffffff1673ffffffffffffffffffffffffffffffffffffffff1614801561323c575060008160020154115b1561325057828061324c906157ae565b9350505b5080806001019150506131ba565b5060008167ffffffffffffffff81111561327b5761327a61444a565b5b6040519080825280602002602001820160405280156132a95781602001602082028036833780820191505090505b5090506000805b84811015613374576000600d600083815260200190815260200160002090508773ffffffffffffffffffffffffffffffffffffffff168160030160009054906101000a900473ffffffffffffffffffffffffffffffffffffffff1673ffffffffffffffffffffffffffffffffffffffff16148015613332575060008160020154115b15613366578184848151811061334b5761334a615756565b5b6020026020010181815250508280613362906157ae565b9350505b5080806001019150506132b0565b5081945050505050919050565b613389613916565b600073ffffffffffffffffffffffffffffffffffffffff168173ffffffffffffffffffffffffffffffffffffffff16036133fb5760006040517f1e4fbdf70000000000000000000000000000000000000000000000000000000081526004016133f291906148ce565b60405180910390fd5b61340481613c07565b50565b600a6020528060005260406000206000915054906101000a900460ff1681565b600c60003373ffffffffffffffffffffffffffffffffffffffff1673ffffffffffffffffffffffffffffffffffffffff16815260200190815260200160002060009054906101000a900460ff161580156134cb5750600b60003373ffffffffffffffffffffffffffffffffffffffff1673ffffffffffffffffffffffffffffffffffffffff16815260200190815260200160002060009054906101000a900460ff16155b801561350a57506134da612ba2565b73ffffffffffffffffffffffffffffffffffffffff163373ffffffffffffffffffffffffffffffffffffffff1614155b15613541576040517f769a566a00000000000000000000000000000000000000000000000000000000815260040160405180910390fd5b600860009054906101000a900460ff1615613588576040517f6c4eefdc00000000000000000000000000000000000000000000000000000000815260040160405180910390fd5b6001600860006101000a81548160ff021916908315150217905550426006819055503373ffffffffffffffffffffffffffffffffffffffff167fe5cc25d76d9d49a22aead69155bab2aa1a014ef127061c945168d9b46036cb25426040516135f09190614938565b60405180910390a2565b6000807fee151c8401928dc223602bb187aff91b9a56c7cae5476ef1b3287b085a16c85f90508091505090565b6000803090506000813b9050600081149250505090565b60007ff0c57e16840df040f15088dc2f81fe391c3923bec73e23a9662efc9c229c6a00905090565b61366e6135fa565b60000160019054906101000a900460ff166136be576040517f08c379a00000000000000000000000000000000000000000000000000000000081526004016136b5906158f1565b60405180910390fd5b6136c88282613f17565b5050565b6136d4613fe3565b6136dd81614023565b50565b6000807f2569078dfb4b0305704d3008e7403993ae9601b85f7ae5e742de3de8f8011c4090508091505090565b60008161371861399d565b116137ce576137256139a2565b821115613758576137516137376136e0565b6004016000848152602001908152602001600020546140a9565b90506137cf565b6137606136e0565b600001548210156137cd5760005b60006137786136e0565b600401600085815260200190815260200160002054915081036137a6578261379f90615911565b925061376e565b60007c01000000000000000000000000000000000000000000000000000000008216149150505b5b5b919050565b8060005260046000fd5b60006137e9836124d6565b905081801561382b57508073ffffffffffffffffffffffffffffffffffffffff16613812613b2e565b73ffffffffffffffffffffffffffffffffffffffff1614155b15613857576138418161383c613b2e565b613107565b6138565761385563cfb3b94260e01b6137d4565b5b5b836138606136e0565b600601600085815260200190815260200160002060000160006101000a81548173ffffffffffffffffffffffffffffffffffffffff021916908373ffffffffffffffffffffffffffffffffffffffff160217905550828473ffffffffffffffffffffffffffffffffffffffff168273ffffffffffffffffffffffffffffffffffffffff167f8c5be1e5ebec7d5bd14f71427d1e84f3dd0314c0f7b2291e5b200ac8c7c3b92560405160405180910390a450505050565b61391e6140ea565b73ffffffffffffffffffffffffffffffffffffffff1661393c612ba2565b73ffffffffffffffffffffffffffffffffffffffff161461399b5761395f6140ea565b6040517f118cdaa700000000000000000000000000000000000000000000000000000000815260040161399291906148ce565b60405180910390fd5b565b600090565b60007fffffffffffffffffffffffffffffffffffffffffffffffffffffffffffffffff905090565b6000816139d561399d565b11613ae8576139e26136e0565b6004016000838152602001908152602001600020549050613a016139a2565b821115613a2657613a11816140a9565b613af957613a2563df2d9b4260e01b6137d4565b5b60008103613abf57613a366136e0565b600001548210613a5157613a5063df2d9b4260e01b6137d4565b5b5b613a5a6136e0565b6004016000836001900393508381526020019081526020016000205490506000810315613aba5760007c010000000000000000000000000000000000000000000000000000000082160315613af957613ab963df2d9b4260e01b6137d4565b5b613a52565b60007c010000000000000000000000000000000000000000000000000000000082160315613af9575b613af863df2d9b4260e01b6137d4565b5b919050565b6000806000613b0b6136e0565b600601600085815260200190815260200160002090508092508254915050915091565b600033905090565b600073ffffffffffffffffffffffffffffffffffffffff8316925073ffffffffffffffffffffffffffffffffffffffff821691508382148383141790509392505050565b50505050565b60008060e883901c905060e8613b978686846140f2565b62ffffff16901b9150509392505050565b600073ffffffffffffffffffffffffffffffffffffffff83169250814260a01b178317905092915050565b50505050565b613bf38282604051806020016040528060008152506140fb565b5050565b613c03828260006137de565b5050565b6000613c11613cde565b905060008160000160009054906101000a900473ffffffffffffffffffffffffffffffffffffffff169050828260000160006101000a81548173ffffffffffffffffffffffffffffffffffffffff021916908373ffffffffffffffffffffffffffffffffffffffff1602179055508273ffffffffffffffffffffffffffffffffffffffff168173ffffffffffffffffffffffffffffffffffffffff167f8be0079c531659141344cd1fd0a4f28419497f9722a3daafe3b4186f6b6457e060405160405180910390a3505050565b60007f9016d09d72d40fdae2fd8ceac6b6234c7706214fd39c1cd1e609a0528c199300905090565b60008373ffffffffffffffffffffffffffffffffffffffff1663150b7a02613d2c613b2e565b8786866040518563ffffffff1660e01b8152600401613d4e949392919061598f565b6020604051808303816000875af1925050508015613d8a57506040513d601f19601f82011682018060405250810190613d8791906159f0565b60015b613de2573d8060008114613dba576040519150601f19603f3d011682016040523d82523d6000602084013e613dbf565b606091505b506000815103613dda57613dd963d1a57ed660e01b6137d4565b5b805181602001fd5b63150b7a0260e01b7bffffffffffffffffffffffffffffffffffffffffffffffffffffffff1916817bffffffffffffffffffffffffffffffffffffffffffffffffffffffff191614915050949350505050565b606060028054613e4490615040565b80601f0160208091040260200160405190810160405280929190818152602001828054613e7090615040565b8015613ebd5780601f10613e9257610100808354040283529160200191613ebd565b820191906000526020600020905b815481529060010190602001808311613ea057829003601f168201915b5050505050905090565b606060a060405101806040526020810391506000825281835b600115613f0257600184039350600a81066030018453600a8104905080613ee0575b50828103602084039350808452505050919050565b613f1f6135fa565b60000160019054906101000a900460ff16613f6f576040517f08c379a0000000000000000000000000000000000000000000000000000000008152600401613f66906158f1565b60405180910390fd5b81613f786136e0565b6002019081613f87919061521d565b5080613f916136e0565b6003019081613fa0919061521d565b50613fa961399d565b613fb16136e0565b60000181905550613fc061399d565b613fc86139a2565b1015613fdf57613fde63fed8210f60e01b6137d4565b5b5050565b613feb61418a565b614021576040517fd7e6bcf800000000000000000000000000000000000000000000000000000000815260040160405180910390fd5b565b61402b613fe3565b600073ffffffffffffffffffffffffffffffffffffffff168173ffffffffffffffffffffffffffffffffffffffff160361409d5760006040517f1e4fbdf700000000000000000000000000000000000000000000000000000000815260040161409491906148ce565b60405180910390fd5b6140a681613c07565b50565b60007c0100000000000000000000000000000000000000000000000000000000821673ffffffffffffffffffffffffffffffffffffffff8316119050919050565b600033905090565b60009392505050565b61410583836141aa565b60008373ffffffffffffffffffffffffffffffffffffffff163b1461418557600061412e6136e0565b600001549050600083820390505b61414f6000868380600101945086613d06565b6141645761416363d1a57ed660e01b6137d4565b5b81811061413c57816141746136e0565b600001541461418257600080fd5b50505b505050565b600061419461363e565b60000160089054906101000a900460ff16905090565b60006141b46136e0565b600001549050600082036141d3576141d263b562e8dd60e01b6137d4565b5b6141e06000848385613b7a565b614200836141f16000866000613b80565b6141fa85614355565b17613ba8565b6142086136e0565b600401600083815260200190815260200160002081905550600160406001901b1782026142336136e0565b60050160008573ffffffffffffffffffffffffffffffffffffffff1673ffffffffffffffffffffffffffffffffffffffff16815260200190815260200160002060008282540192505081905550600073ffffffffffffffffffffffffffffffffffffffff8473ffffffffffffffffffffffffffffffffffffffff16169050600081036142ca576142c9632e07630060e01b6137d4565b5b6000838301905060008390506142de6139a2565b6001830311156142f9576142f86381647e3a60e01b6137d4565b5b5b808360007fddf252ad1be2c89b69c2b068fc378daa952ba7f163c4a11628f55a4df523b3ef600080a48181600101915081036142fa57816143396136e0565b600001819055505050506143506000848385613bd3565b505050565b60006001821460e11b9050919050565b6000604051905090565b600080fd5b600080fd5b60007fffffffff0000000000000000000000000000000000000000000000000000000082169050919050565b6143ae81614379565b81146143b957600080fd5b50565b6000813590506143cb816143a5565b92915050565b6000602082840312156143e7576143e661436f565b5b60006143f5848285016143bc565b91505092915050565b60008115159050919050565b614413816143fe565b82525050565b600060208201905061442e600083018461440a565b92915050565b600080fd5b6000601f19601f8301169050919050565b7f4e487b7100000000000000000000000000000000000000000000000000000000600052604160045260246000fd5b61448282614439565b810181811067ffffffffffffffff821117156144a1576144a061444a565b5b80604052505050565b60006144b4614365565b90506144c08282614479565b919050565b600080fd5b600080fd5b600080fd5b600067ffffffffffffffff8211156144ef576144ee61444a565b5b6144f882614439565b9050602081019050919050565b82818337600083830152505050565b6000614527614522846144d4565b6144aa565b905082815260208101848484011115614543576145426144cf565b5b61454e848285614505565b509392505050565b600082601f83011261456b5761456a6144ca565b5b813561457b848260208601614514565b91505092915050565b6000819050919050565b61459781614584565b81146145a257600080fd5b50565b6000813590506145b48161458e565b92915050565b600061012082840312156145d1576145d0614434565b5b6145dc6101206144aa565b9050600082013567ffffffffffffffff8111156145fc576145fb6144c5565b5b61460884828501614556565b600083015250602082013567ffffffffffffffff81111561462c5761462b6144c5565b5b61463884828501614556565b602083015250604061464c848285016145a5565b6040830152506060614660848285016145a5565b606083015250608082013567ffffffffffffffff811115614684576146836144c5565b5b61469084828501614556565b60808301525060a082013567ffffffffffffffff8111156146b4576146b36144c5565b5b6146c084828501614556565b60a08301525060c06146d4848285016145a5565b60c08301525060e06146e8848285016145a5565b60e0830152506101006146fd848285016145a5565b6101008301525092915050565b600073ffffffffffffffffffffffffffffffffffffffff82169050919050565b60006147358261470a565b9050919050565b6147458161472a565b811461475057600080fd5b50565b6000813590506147628161473c565b92915050565b6000806040838503121561477f5761477e61436f565b5b600083013567ffffffffffffffff81111561479d5761479c614374565b5b6147a9858286016145ba565b92505060206147ba85828601614753565b9150509250929050565b6000602082840312156147da576147d961436f565b5b60006147e884828501614753565b91505092915050565b600081519050919050565b600082825260208201905092915050565b60005b8381101561482b578082015181840152602081019050614810565b60008484015250505050565b6000614842826147f1565b61484c81856147fc565b935061485c81856020860161480d565b61486581614439565b840191505092915050565b6000602082019050818103600083015261488a8184614837565b905092915050565b6000602082840312156148a8576148a761436f565b5b60006148b6848285016145a5565b91505092915050565b6148c88161472a565b82525050565b60006020820190506148e360008301846148bf565b92915050565b60008060408385031215614900576148ff61436f565b5b600061490e85828601614753565b925050602061491f858286016145a5565b9150509250929050565b61493281614584565b82525050565b600060208201905061494d6000830184614929565b92915050565b60008060006060848603121561496c5761496b61436f565b5b600061497a86828701614753565b935050602061498b86828701614753565b925050604061499c868287016145a5565b9150509250925092565b600080604083850312156149bd576149bc61436f565b5b60006149cb858286016145a5565b92505060206149dc858286016145a5565b9150509250929050565b600080fd5b600080fd5b60008083601f840112614a0657614a056144ca565b5b8235905067ffffffffffffffff811115614a2357614a226149e6565b5b602083019150836001820283011115614a3f57614a3e6149eb565b5b9250929050565b60008060008060008060008060c0898b031215614a6657614a6561436f565b5b6000614a748b828c016145a5565b9850506020614a858b828c016145a5565b9750506040614a968b828c016145a5565b9650506060614aa78b828c016145a5565b955050608089013567ffffffffffffffff811115614ac857614ac7614374565b5b614ad48b828c016149f0565b945094505060a089013567ffffffffffffffff811115614af757614af6614374565b5b614b038b828c016149f0565b92509250509295985092959890939650565b60008083601f840112614b2b57614b2a6144ca565b5b8235905067ffffffffffffffff811115614b4857614b476149e6565b5b602083019150836020820283011115614b6457614b636149eb565b5b9250929050565b60008060008060408587031215614b8557614b8461436f565b5b600085013567ffffffffffffffff811115614ba357614ba2614374565b5b614baf87828801614b15565b9450945050602085013567ffffffffffffffff811115614bd257614bd1614374565b5b614bde87828801614b15565b925092505092959194509250565b7f4e487b7100000000000000000000000000000000000000000000000000000000600052602160045260246000fd5b60028110614c2c57614c2b614bec565b5b50565b6000819050614c3d82614c1b565b919050565b6000614c4d82614c2f565b9050919050565b614c5d81614c42565b82525050565b6000819050919050565b614c7681614c63565b82525050565b600060a082019050614c916000830188614c54565b614c9e6020830187614929565b614cab6040830186614929565b614cb860608301856148bf565b614cc56080830184614c6d565b9695505050505050565b600081519050919050565b600082825260208201905092915050565b6000819050602082019050919050565b614d0481614584565b82525050565b6000614d168383614cfb565b60208301905092915050565b6000602082019050919050565b6000614d3a82614ccf565b614d448185614cda565b9350614d4f83614ceb565b8060005b83811015614d80578151614d678882614d0a565b9750614d7283614d22565b925050600181019050614d53565b5085935050505092915050565b60006020820190508181036000830152614da78184614d2f565b905092915050565b614db8816143fe565b8114614dc357600080fd5b50565b600081359050614dd581614daf565b92915050565b60008060408385031215614df257614df161436f565b5b6000614e0085828601614753565b9250506020614e1185828601614dc6565b9150509250929050565b600067ffffffffffffffff821115614e3657614e3561444a565b5b614e3f82614439565b9050602081019050919050565b6000614e5f614e5a84614e1b565b6144aa565b905082815260208101848484011115614e7b57614e7a6144cf565b5b614e86848285614505565b509392505050565b600082601f830112614ea357614ea26144ca565b5b8135614eb3848260208601614e4c565b91505092915050565b60008060008060808587031215614ed657614ed561436f565b5b6000614ee487828801614753565b9450506020614ef587828801614753565b9350506040614f06878288016145a5565b925050606085013567ffffffffffffffff811115614f2757614f26614374565b5b614f3387828801614e8e565b91505092959194509250565b60008060408385031215614f5657614f5561436f565b5b6000614f6485828601614753565b9250506020614f7585828601614753565b9150509250929050565b7f455243373231415f5f496e697469616c697a61626c653a20636f6e747261637460008201527f20697320616c726561647920696e697469616c697a6564000000000000000000602082015250565b6000614fdb6037836147fc565b9150614fe682614f7f565b604082019050919050565b6000602082019050818103600083015261500a81614fce565b9050919050565b7f4e487b7100000000000000000000000000000000000000000000000000000000600052602260045260246000fd5b6000600282049050600182168061505857607f821691505b60208210810361506b5761506a615011565b5b50919050565b60008190508160005260206000209050919050565b60006020601f8301049050919050565b600082821b905092915050565b6000600883026150d37fffffffffffffffffffffffffffffffffffffffffffffffffffffffffffffffff82615096565b6150dd8683615096565b95508019841693508086168417925050509392505050565b6000819050919050565b600061511a61511561511084614584565b6150f5565b614584565b9050919050565b6000819050919050565b615134836150ff565b61514861514082615121565b8484546150a3565b825550505050565b600090565b61515d615150565b61516881848461512b565b505050565b5b8181101561518c57615181600082615155565b60018101905061516e565b5050565b601f8211156151d1576151a281615071565b6151ab84615086565b810160208510156151ba578190505b6151ce6151c685615086565b83018261516d565b50505b505050565b600082821c905092915050565b60006151f4600019846008026151d6565b1980831691505092915050565b600061520d83836151e3565b9150826002028217905092915050565b615226826147f1565b67ffffffffffffffff81111561523f5761523e61444a565b5b6152498254615040565b615254828285615190565b600060209050601f8311600181146152875760008415615275578287015190505b61527f8582615201565b8655506152e7565b601f19841661529586615071565b60005b828110156152bd57848901518255600182019150602085019450602081019050615298565b868310156152da57848901516152d6601f8916826151e3565b8355505b6001600288020188555050505b505050505050565b6000819050919050565b600067ffffffffffffffff82169050919050565b600061532861532361531e846152ef565b6150f5565b6152f9565b9050919050565b6153388161530d565b82525050565b6000602082019050615353600083018461532f565b92915050565b7f41444d494e000000000000000000000000000000000000000000000000000000600082015250565b600061538f6005836147fc565b915061539a82615359565b602082019050919050565b600060408201905081810360008301526153be81615382565b90506153cd602083018461440a565b92915050565b60006040820190506153e86000830185614929565b6153f560208301846148bf565b9392505050565b600081905092915050565b50565b60006154176000836153fc565b915061542282615407565b600082019050919050565b60006154388261540a565b9150819050919050565b7f56414c494441544f520000000000000000000000000000000000000000000000600082015250565b60006154786009836147fc565b915061548382615442565b602082019050919050565b600060408201905081810360008301526154a78161546b565b90506154b6602083018461440a565b92915050565b7f4f5247414e495a45520000000000000000000000000000000000000000000000600082015250565b60006154f26009836147fc565b91506154fd826154bc565b602082019050919050565b60006040820190508181036000830152615521816154e5565b9050615530602083018461440a565b92915050565b7f4e487b7100000000000000000000000000000000000000000000000000000000600052601160045260246000fd5b600061557082614584565b915061557b83614584565b925082820190508082111561559357615592615536565b5b92915050565b60006155a482614584565b91506155af83614584565b92508282026155bd81614584565b915082820484148315176155d4576155d3615536565b5b5092915050565b600082905092915050565b6155f083836155db565b67ffffffffffffffff8111156156095761560861444a565b5b6156138254615040565b61561e828285615190565b6000601f83116001811461564d576000841561563b578287013590505b6156458582615201565b8655506156ad565b601f19841661565b86615071565b60005b828110156156835784890135825560018201915060208501945060208101905061565e565b868310156156a0578489013561569c601f8916826151e3565b8355505b6001600288020188555050505b50505050505050565b60006156c283856147fc565b93506156cf838584614505565b6156d883614439565b840190509392505050565b600060c0820190506156f8600083018b614929565b615705602083018a614929565b6157126040830189614929565b61571f6060830188614929565b81810360808301526157328186886156b6565b905081810360a08301526157478184866156b6565b90509998505050505050505050565b7f4e487b7100000000000000000000000000000000000000000000000000000000600052603260045260246000fd5b600060408201905061579a6000830185614929565b6157a76020830184614929565b9392505050565b60006157b982614584565b91507fffffffffffffffffffffffffffffffffffffffffffffffffffffffffffffffff82036157eb576157ea615536565b5b600182019050919050565b600060408201905061580b60008301856148bf565b6158186020830184614929565b9392505050565b600081905092915050565b6000615835826147f1565b61583f818561581f565b935061584f81856020860161480d565b80840191505092915050565b6000615867828561582a565b9150615873828461582a565b91508190509392505050565b7f455243373231415f5f496e697469616c697a61626c653a20636f6e747261637460008201527f206973206e6f7420696e697469616c697a696e67000000000000000000000000602082015250565b60006158db6034836147fc565b91506158e68261587f565b604082019050919050565b6000602082019050818103600083015261590a816158ce565b9050919050565b600061591c82614584565b91506000820361592f5761592e615536565b5b600182039050919050565b600081519050919050565b600082825260208201905092915050565b60006159618261593a565b61596b8185615945565b935061597b81856020860161480d565b61598481614439565b840191505092915050565b60006080820190506159a460008301876148bf565b6159b160208301866148bf565b6159be6040830185614929565b81810360608301526159d08184615956565b905095945050505050565b6000815190506159ea816143a5565b92915050565b600060208284031215615a0657615a0561436f565b5b6000615a14848285016159db565b9150509291505056fea264697066735822122046749aae56d83c9d3008084dc3d3e7d202f3b90f0514cd6ed05440246ba04cff64736f6c634300081c0033",
  "linkReferences": {},
  "deployedLinkReferences": {}
}