{
  "_format": "hh-sol-artifact-1",
  "contractName": "EventTicketFactory",
  "sourceName": "contracts/EventTicketFactory.sol",
  "abi": [
    {
      "inputs": [
        {
          "internalType": "address",
          "name": "_logicAddress",
          "type": "address"
        }
      ],
      "stateMutability": "nonpayable",
      "type": "constructor"
    },
    {
      "inputs": [],
      "name": "FailedDeployment",
      "type": "error"
    },
    {
      "inputs": [
        {
          "internalType": "uint256",
          "name": "balance",
          "type": "uint256"
        },
        {
          "internalType": "uint256",
          "name": "needed",
          "type": "uint256"
        }
      ],
      "name": "InsufficientBalance",
      "type": "error"
    },
    {
      "inputs": [],
      "name": "NotFactoryAdmin",
      "type": "error"
    },
    {
      "inputs": [],
      "name": "NotOrganizerOrAdmin",
      "type": "error"
    },
    {
      "inputs": [
        {
          "internalType": "address",
          "name": "owner",
          "type": "address"
        }
      ],
      "name": "OwnableInvalidOwner",
      "type": "error"
    },
    {
      "inputs": [
        {
          "internalType": "address",
          "name": "account",
          "type": "address"
        }
      ],
      "name": "OwnableUnauthorizedAccount",
      "type": "error"
    },
    {
      "anonymous": false,
      "inputs": [
        {
          "indexed": true,
          "internalType": "address",
          "name": "eventAddress",
          "type": "address"
        },
        {
          "indexed": true,
          "internalType": "address",
          "name": "creator",
          "type": "address"
        },
        {
          "indexed": false,
          "internalType": "string",
          "name": "name",
          "type": "string"
        }
      ],
      "name": "EventCreated",
      "type": "event"
    },
    {
      "anonymous": false,
      "inputs": [
        {
          "indexed": true,
          "internalType": "address",
          "name": "admin",
          "type": "address"
        },
        {
          "indexed": false,
          "internalType": "bool",
          "name": "status",
          "type": "bool"
        }
      ],
      "name": "FactoryAdminUpdate",
      "type": "event"
    },
    {
      "anonymous": false,
      "inputs": [
        {
          "indexed": true,
          "internalType": "address",
          "name": "organizer",
          "type": "address"
        },
        {
          "indexed": false,
          "internalType": "bool",
          "name": "status",
          "type": "bool"
        }
      ],
      "name": "OrganizerUpdate",
      "type": "event"
    },
    {
      "anonymous": false,
      "inputs": [
        {
          "indexed": true,
          "internalType": "address",
          "name": "previousOwner",
          "type": "address"
        },
        {
          "indexed": true,
          "internalType": "address",
          "name": "newOwner",
          "type": "address"
        }
      ],
      "name": "OwnershipTransferred",
      "type": "event"
    },
    {
      "inputs": [
        {
          "internalType": "string",
          "name": "_name",
          "type": "string"
        },
        {
          "internalType": "string",
          "name": "_symbol",
          "type": "string"
        },
        {
          "internalType": "uint256",
          "name": "_ticketPrice",
          "type": "uint256"
        },
        {
          "internalType": "uint256",
          "name": "_maxSupply",
          "type": "uint256"
        },
        {
          "internalType": "string",
          "name": "_eventURI",
          "type": "string"
        },
        {
          "internalType": "string",
          "name": "_baseTokenURI",
          "type": "string"
        },
        {
          "internalType": "uint256",
          "name": "_maxTicketsPerAddress",
          "type": "uint256"
        },
        {
          "internalType": "uint256",
          "name": "_startPurchaseTime",
          "type": "uint256"
        },
        {
          "internalType": "uint256",
          "name": "_eventEndTime",
          "type": "uint256"
        }
      ],
      "name": "createEvent",
      "outputs": [
        {
          "internalType": "address",
          "name": "",
          "type": "address"
        }
      ],
      "stateMutability": "nonpayable",
      "type": "function"
    },
    {
      "inputs": [],
      "name": "eventLogic",
      "outputs": [
        {
          "internalType": "address",
          "name": "",
          "type": "address"
        }
      ],
      "stateMutability": "view",
      "type": "function"
    },
    {
      "inputs": [
        {
          "internalType": "address",
          "name": "",
          "type": "address"
        }
      ],
      "name": "factoryAdmins",
      "outputs": [
        {
          "internalType": "bool",
          "name": "",
          "type": "bool"
        }
      ],
      "stateMutability": "view",
      "type": "function"
    },
    {
      "inputs": [],
      "name": "getEvents",
      "outputs": [
        {
          "internalType": "address[]",
          "name": "",
          "type": "address[]"
        }
      ],
      "stateMutability": "view",
      "type": "function"
    },
    {
      "inputs": [
        {
          "internalType": "address",
          "name": "",
          "type": "address"
        }
      ],
      "name": "organizers",
      "outputs": [
        {
          "internalType": "bool",
          "name": "",
          "type": "bool"
        }
      ],
      "stateMutability": "view",
      "type": "function"
    },
    {
      "inputs": [],
      "name": "owner",
      "outputs": [
        {
          "internalType": "address",
          "name": "",
          "type": "address"
        }
      ],
      "stateMutability": "view",
      "type": "function"
    },
    {
      "inputs": [],
      "name": "renounceOwnership",
      "outputs": [],
      "stateMutability": "nonpayable",
      "type": "function"
    },
    {
      "inputs": [
        {
          "internalType": "address",
          "name": "_admin",
          "type": "address"
        },
        {
          "internalType": "bool",
          "name": "_status",
          "type": "bool"
        }
      ],
      "name": "setFactoryAdmin",
      "outputs": [],
      "stateMutability": "nonpayable",
      "type": "function"
    },
    {
      "inputs": [
        {
          "internalType": "address",
          "name": "_organizer",
          "type": "address"
        },
        {
          "internalType": "bool",
          "name": "_status",
          "type": "bool"
        }
      ],
      "name": "setOrganizer",
      "outputs": [],
      "stateMutability": "nonpayable",
      "type": "function"
    },
    {
      "inputs": [
        {
          "internalType": "uint256",
          "name": "",
          "type": "uint256"
        }
      ],
      "name": "stateEvents",
      "outputs": [
        {
          "internalType": "address",
          "name": "",
          "type": "address"
        }
      ],
      "stateMutability": "view",
      "type": "function"
    },
    {
      "inputs": [
        {
          "internalType": "address",
          "name": "newOwner",
          "type": "address"
        }
      ],
      "name": "transferOwnership",
      "outputs": [],
      "stateMutability": "nonpayable",
      "type": "function"
    }
  ],
  "bytecode": "0x60a060405234801561001057600080fd5b5060405161173638038061173683398181016040528101906100329190610335565b33600073ffffffffffffffffffffffffffffffffffffffff168173ffffffffffffffffffffffffffffffffffffffff16036100a55760006040517f1e4fbdf700000000000000000000000000000000000000000000000000000000815260040161009c9190610371565b60405180910390fd5b6100b48161020e60201b60201c565b50600073ffffffffffffffffffffffffffffffffffffffff168173ffffffffffffffffffffffffffffffffffffffff1603610124576040517f08c379a000000000000000000000000000000000000000000000000000000000815260040161011b906103e9565b60405180910390fd5b8073ffffffffffffffffffffffffffffffffffffffff1660808173ffffffffffffffffffffffffffffffffffffffff16815250506001600260003373ffffffffffffffffffffffffffffffffffffffff1673ffffffffffffffffffffffffffffffffffffffff16815260200190815260200160002060006101000a81548160ff0219169083151502179055506001600360003373ffffffffffffffffffffffffffffffffffffffff1673ffffffffffffffffffffffffffffffffffffffff16815260200190815260200160002060006101000a81548160ff02191690831515021790555050610409565b60008060009054906101000a900473ffffffffffffffffffffffffffffffffffffffff169050816000806101000a81548173ffffffffffffffffffffffffffffffffffffffff021916908373ffffffffffffffffffffffffffffffffffffffff1602179055508173ffffffffffffffffffffffffffffffffffffffff168173ffffffffffffffffffffffffffffffffffffffff167f8be0079c531659141344cd1fd0a4f28419497f9722a3daafe3b4186f6b6457e060405160405180910390a35050565b600080fd5b600073ffffffffffffffffffffffffffffffffffffffff82169050919050565b6000610302826102d7565b9050919050565b610312816102f7565b811461031d57600080fd5b50565b60008151905061032f81610309565b92915050565b60006020828403121561034b5761034a6102d2565b5b600061035984828501610320565b91505092915050565b61036b816102f7565b82525050565b60006020820190506103866000830184610362565b92915050565b600082825260208201905092915050565b7f496e76616c6964206c6f67696320616464726573730000000000000000000000600082015250565b60006103d360158361038c565b91506103de8261039d565b602082019050919050565b60006020820190508181036000830152610402816103c6565b9050919050565b60805161130b61042b60003960008181610248015261038d015261130b6000f3fe608060405234801561001057600080fd5b50600436106100a95760003560e01c806365419930116100715780636541993014610166578063715018a6146101965780638da5cb5b146101a0578063a9701772146101be578063f2fde38b146101ee578063ff48ecb11461020a576100a9565b80630544c5b9146100ae57806325c3b041146100de57806329e3bc2c146100fc5780633a1896741461012c578063404aa8f914610148575b600080fd5b6100c860048036038101906100c39190610bdd565b610226565b6040516100d59190610c25565b60405180910390f35b6100e6610246565b6040516100f39190610c4f565b60405180910390f35b61011660048036038101906101119190610de6565b61026a565b6040516101239190610c4f565b60405180910390f35b61014660048036038101906101419190610f4c565b61053e565b005b6101506106ab565b60405161015d919061104a565b60405180910390f35b610180600480360381019061017b9190610bdd565b610739565b60405161018d9190610c25565b60405180910390f35b61019e610759565b005b6101a861076d565b6040516101b59190610c4f565b60405180910390f35b6101d860048036038101906101d3919061106c565b610796565b6040516101e59190610c4f565b60405180910390f35b61020860048036038101906102039190610bdd565b6107d5565b005b610224600480360381019061021f9190610f4c565b61085b565b005b60036020528060005260406000206000915054906101000a900460ff1681565b7f000000000000000000000000000000000000000000000000000000000000000081565b6000600360003373ffffffffffffffffffffffffffffffffffffffff1673ffffffffffffffffffffffffffffffffffffffff16815260200190815260200160002060009054906101000a900460ff161580156103105750600260003373ffffffffffffffffffffffffffffffffffffffff1673ffffffffffffffffffffffffffffffffffffffff16815260200190815260200160002060009054906101000a900460ff16155b801561034f575061031f61076d565b73ffffffffffffffffffffffffffffffffffffffff163373ffffffffffffffffffffffffffffffffffffffff1614155b15610386576040517f769a566a00000000000000000000000000000000000000000000000000000000815260040160405180910390fd5b60006103b17f000000000000000000000000000000000000000000000000000000000000000061090c565b905060006040518061012001604052808d81526020018c81526020018b81526020018a81526020018981526020018881526020018781526020018681526020018581525090508173ffffffffffffffffffffffffffffffffffffffff16630333a39282336040518363ffffffff1660e01b8152600401610432929190611201565b600060405180830381600087803b15801561044c57600080fd5b505af1158015610460573d6000803e3d6000fd5b505050506001829080600181540180825580915050600190039060005260206000200160009091909190916101000a81548173ffffffffffffffffffffffffffffffffffffffff021916908373ffffffffffffffffffffffffffffffffffffffff1602179055503373ffffffffffffffffffffffffffffffffffffffff168273ffffffffffffffffffffffffffffffffffffffff167fa54c7891edaa21526f9ad14c69ae2fd966ac0969fcd9a990a4e006427afd382e8e604051610524919061127b565b60405180910390a381925050509998505050505050505050565b600260003373ffffffffffffffffffffffffffffffffffffffff1673ffffffffffffffffffffffffffffffffffffffff16815260200190815260200160002060009054906101000a900460ff161580156105cb575061059b61076d565b73ffffffffffffffffffffffffffffffffffffffff163373ffffffffffffffffffffffffffffffffffffffff1614155b15610602576040517f9a1a53b400000000000000000000000000000000000000000000000000000000815260040160405180910390fd5b80600360008473ffffffffffffffffffffffffffffffffffffffff1673ffffffffffffffffffffffffffffffffffffffff16815260200190815260200160002060006101000a81548160ff0219169083151502179055508173ffffffffffffffffffffffffffffffffffffffff167f6e2096c7afed4ab98a432178550753f615829620f7d0e29a87def93a1028d7598260405161069f9190610c25565b60405180910390a25050565b6060600180548060200260200160405190810160405280929190818152602001828054801561072f57602002820191906000526020600020905b8160009054906101000a900473ffffffffffffffffffffffffffffffffffffffff1673ffffffffffffffffffffffffffffffffffffffff16815260200190600101908083116106e5575b5050505050905090565b60026020528060005260406000206000915054906101000a900460ff1681565b610761610920565b61076b60006109a7565b565b60008060009054906101000a900473ffffffffffffffffffffffffffffffffffffffff16905090565b600181815481106107a657600080fd5b906000526020600020016000915054906101000a900473ffffffffffffffffffffffffffffffffffffffff1681565b6107dd610920565b600073ffffffffffffffffffffffffffffffffffffffff168173ffffffffffffffffffffffffffffffffffffffff160361084f5760006040517f1e4fbdf70000000000000000000000000000000000000000000000000000000081526004016108469190610c4f565b60405180910390fd5b610858816109a7565b50565b610863610920565b80600260008473ffffffffffffffffffffffffffffffffffffffff1673ffffffffffffffffffffffffffffffffffffffff16815260200190815260200160002060006101000a81548160ff0219169083151502179055508173ffffffffffffffffffffffffffffffffffffffff167f724c5e38dda8338385306b91b7a0163a436e6c65510a932076e1c77a63a166bc826040516109009190610c25565b60405180910390a25050565b6000610919826000610a6b565b9050919050565b610928610b63565b73ffffffffffffffffffffffffffffffffffffffff1661094661076d565b73ffffffffffffffffffffffffffffffffffffffff16146109a557610969610b63565b6040517f118cdaa700000000000000000000000000000000000000000000000000000000815260040161099c9190610c4f565b60405180910390fd5b565b60008060009054906101000a900473ffffffffffffffffffffffffffffffffffffffff169050816000806101000a81548173ffffffffffffffffffffffffffffffffffffffff021916908373ffffffffffffffffffffffffffffffffffffffff1602179055508173ffffffffffffffffffffffffffffffffffffffff168173ffffffffffffffffffffffffffffffffffffffff167f8be0079c531659141344cd1fd0a4f28419497f9722a3daafe3b4186f6b6457e060405160405180910390a35050565b600081471015610ab45747826040517fcf479181000000000000000000000000000000000000000000000000000000008152600401610aab9291906112ac565b60405180910390fd5b763d602d80600a3d3981f3363d3d373d3d3d363d730000008360601b60e81c176000526e5af43d82803e903d91602b57fd5bf38360781b176020526037600983f09050600073ffffffffffffffffffffffffffffffffffffffff168173ffffffffffffffffffffffffffffffffffffffff1603610b5d576040517fb06ebf3d00000000000000000000000000000000000000000000000000000000815260040160405180910390fd5b92915050565b600033905090565b6000604051905090565b600080fd5b600080fd5b600073ffffffffffffffffffffffffffffffffffffffff82169050919050565b6000610baa82610b7f565b9050919050565b610bba81610b9f565b8114610bc557600080fd5b50565b600081359050610bd781610bb1565b92915050565b600060208284031215610bf357610bf2610b75565b5b6000610c0184828501610bc8565b91505092915050565b60008115159050919050565b610c1f81610c0a565b82525050565b6000602082019050610c3a6000830184610c16565b92915050565b610c4981610b9f565b82525050565b6000602082019050610c646000830184610c40565b92915050565b600080fd5b600080fd5b6000601f19601f8301169050919050565b7f4e487b7100000000000000000000000000000000000000000000000000000000600052604160045260246000fd5b610cbd82610c74565b810181811067ffffffffffffffff82111715610cdc57610cdb610c85565b5b80604052505050565b6000610cef610b6b565b9050610cfb8282610cb4565b919050565b600067ffffffffffffffff821115610d1b57610d1a610c85565b5b610d2482610c74565b9050602081019050919050565b82818337600083830152505050565b6000610d53610d4e84610d00565b610ce5565b905082815260208101848484011115610d6f57610d6e610c6f565b5b610d7a848285610d31565b509392505050565b600082601f830112610d9757610d96610c6a565b5b8135610da7848260208601610d40565b91505092915050565b6000819050919050565b610dc381610db0565b8114610dce57600080fd5b50565b600081359050610de081610dba565b92915050565b60008060008060008060008060006101208a8c031215610e0957610e08610b75565b5b60008a013567ffffffffffffffff811115610e2757610e26610b7a565b5b610e338c828d01610d82565b99505060208a013567ffffffffffffffff811115610e5457610e53610b7a565b5b610e608c828d01610d82565b9850506040610e718c828d01610dd1565b9750506060610e828c828d01610dd1565b96505060808a013567ffffffffffffffff811115610ea357610ea2610b7a565b5b610eaf8c828d01610d82565b95505060a08a013567ffffffffffffffff811115610ed057610ecf610b7a565b5b610edc8c828d01610d82565b94505060c0610eed8c828d01610dd1565b93505060e0610efe8c828d01610dd1565b925050610100610f108c828d01610dd1565b9150509295985092959850929598565b610f2981610c0a565b8114610f3457600080fd5b50565b600081359050610f4681610f20565b92915050565b60008060408385031215610f6357610f62610b75565b5b6000610f7185828601610bc8565b9250506020610f8285828601610f37565b9150509250929050565b600081519050919050565b600082825260208201905092915050565b6000819050602082019050919050565b610fc181610b9f565b82525050565b6000610fd38383610fb8565b60208301905092915050565b6000602082019050919050565b6000610ff782610f8c565b6110018185610f97565b935061100c83610fa8565b8060005b8381101561103d5781516110248882610fc7565b975061102f83610fdf565b925050600181019050611010565b5085935050505092915050565b600060208201905081810360008301526110648184610fec565b905092915050565b60006020828403121561108257611081610b75565b5b600061109084828501610dd1565b91505092915050565b600081519050919050565b600082825260208201905092915050565b60005b838110156110d35780820151818401526020810190506110b8565b60008484015250505050565b60006110ea82611099565b6110f481856110a4565b93506111048185602086016110b5565b61110d81610c74565b840191505092915050565b61112181610db0565b82525050565b600061012083016000830151848203600086015261114582826110df565b9150506020830151848203602086015261115f82826110df565b91505060408301516111746040860182611118565b5060608301516111876060860182611118565b506080830151848203608086015261119f82826110df565b91505060a083015184820360a08601526111b982826110df565b91505060c08301516111ce60c0860182611118565b5060e08301516111e160e0860182611118565b506101008301516111f6610100860182611118565b508091505092915050565b6000604082019050818103600083015261121b8185611127565b905061122a6020830184610c40565b9392505050565b600082825260208201905092915050565b600061124d82611099565b6112578185611231565b93506112678185602086016110b5565b61127081610c74565b840191505092915050565b600060208201905081810360008301526112958184611242565b905092915050565b6112a681610db0565b82525050565b60006040820190506112c1600083018561129d565b6112ce602083018461129d565b939250505056fea2646970667358221220578b309587df184f331facc741db0eb8d9a687edeb1ba50da035736408063aca64736f6c634300081c0033",
  "linkReferences": {},
  "deployedLinkReferences": {}
}